{
  "contractName": "TransparentCrowdFunding",
  "abi": [
    {
      "anonymous": false,
      "inputs": [
        {
          "indexed": false,
          "internalType": "uint256",
          "name": "campaignId",
          "type": "uint256"
        },
        {
          "indexed": false,
          "internalType": "string",
          "name": "title",
          "type": "string"
        },
        {
          "indexed": false,
          "internalType": "uint256",
          "name": "goalAmount",
          "type": "uint256"
        },
        {
          "indexed": false,
          "internalType": "uint256",
          "name": "startTime",
          "type": "uint256"
        },
        {
          "indexed": false,
          "internalType": "uint256",
          "name": "endTime",
          "type": "uint256"
        }
      ],
      "name": "CampaignCreated",
      "type": "event"
    },
    {
      "anonymous": false,
      "inputs": [
        {
          "indexed": false,
          "internalType": "uint256",
          "name": "campaignId",
          "type": "uint256"
        },
        {
          "indexed": false,
          "internalType": "address",
          "name": "donor",
          "type": "address"
        },
        {
          "indexed": false,
          "internalType": "uint256",
          "name": "amount",
          "type": "uint256"
        }
      ],
      "name": "DonationReceived",
      "type": "event"
    },
    {
      "anonymous": false,
      "inputs": [
        {
          "indexed": false,
          "internalType": "uint256",
          "name": "campaignId",
          "type": "uint256"
        },
        {
          "indexed": false,
          "internalType": "uint256",
          "name": "amount",
          "type": "uint256"
        },
        {
          "indexed": false,
          "internalType": "string",
          "name": "description",
          "type": "string"
        }
      ],
      "name": "ExpenseAdded",
      "type": "event"
    },
    {
      "anonymous": false,
      "inputs": [
        {
          "indexed": false,
          "internalType": "uint256",
          "name": "campaignId",
          "type": "uint256"
        },
        {
          "indexed": false,
          "internalType": "uint256",
          "name": "amount",
          "type": "uint256"
        }
      ],
      "name": "FundsSpent",
      "type": "event"
    },
    {
      "inputs": [],
      "name": "campaignCount",
      "outputs": [
        {
          "internalType": "uint256",
          "name": "",
          "type": "uint256"
        }
      ],
      "stateMutability": "view",
      "type": "function",
      "constant": true
    },
    {
      "inputs": [
        {
          "internalType": "uint256",
          "name": "",
          "type": "uint256"
        },
        {
          "internalType": "uint256",
          "name": "",
          "type": "uint256"
        }
      ],
      "name": "campaignExpenses",
      "outputs": [
        {
          "internalType": "uint256",
          "name": "amount",
          "type": "uint256"
        },
        {
          "internalType": "string",
          "name": "description",
          "type": "string"
        },
        {
          "internalType": "uint256",
          "name": "date",
          "type": "uint256"
        }
      ],
      "stateMutability": "view",
      "type": "function",
      "constant": true
    },
    {
      "inputs": [
        {
          "internalType": "uint256",
          "name": "",
          "type": "uint256"
        }
      ],
      "name": "campaigns",
      "outputs": [
        {
          "internalType": "string",
          "name": "title",
          "type": "string"
        },
        {
          "internalType": "string",
          "name": "description",
          "type": "string"
        },
        {
          "internalType": "uint256",
          "name": "goalAmount",
          "type": "uint256"
        },
        {
          "internalType": "uint256",
          "name": "raisedAmount",
          "type": "uint256"
        },
        {
          "internalType": "uint256",
          "name": "startTime",
          "type": "uint256"
        },
        {
          "internalType": "uint256",
          "name": "endTime",
          "type": "uint256"
        },
        {
          "internalType": "address payable",
          "name": "creator",
          "type": "address"
        },
        {
          "internalType": "bool",
          "name": "isPrivate",
          "type": "bool"
        },
        {
          "internalType": "bool",
          "name": "isEnded",
          "type": "bool"
        }
      ],
      "stateMutability": "view",
      "type": "function",
      "constant": true
    },
    {
      "inputs": [
        {
          "internalType": "string",
          "name": "_title",
          "type": "string"
        },
        {
          "internalType": "string",
          "name": "_description",
          "type": "string"
        },
        {
          "internalType": "uint256",
          "name": "_goalAmount",
          "type": "uint256"
        },
        {
          "internalType": "uint256",
          "name": "_duration",
          "type": "uint256"
        },
        {
          "internalType": "bool",
          "name": "_isPrivate",
          "type": "bool"
        }
      ],
      "name": "createCampaign",
      "outputs": [],
      "stateMutability": "nonpayable",
      "type": "function"
    },
    {
      "inputs": [
        {
          "internalType": "uint256",
          "name": "campaignId",
          "type": "uint256"
        }
      ],
      "name": "donate",
      "outputs": [],
      "stateMutability": "payable",
      "type": "function",
      "payable": true
    },
    {
      "inputs": [
        {
          "internalType": "uint256",
          "name": "campaignId",
          "type": "uint256"
        },
        {
          "internalType": "uint256",
          "name": "_amount",
          "type": "uint256"
        },
        {
          "internalType": "string",
          "name": "_description",
          "type": "string"
        }
      ],
      "name": "addExpense",
      "outputs": [],
      "stateMutability": "nonpayable",
      "type": "function"
    },
    {
      "inputs": [
        {
          "internalType": "uint256",
          "name": "campaignId",
          "type": "uint256"
        }
      ],
      "name": "getExpenses",
      "outputs": [
        {
          "components": [
            {
              "internalType": "uint256",
              "name": "amount",
              "type": "uint256"
            },
            {
              "internalType": "string",
              "name": "description",
              "type": "string"
            },
            {
              "internalType": "uint256",
              "name": "date",
              "type": "uint256"
            }
          ],
          "internalType": "struct TransparentCrowdFunding.Expense[]",
          "name": "",
          "type": "tuple[]"
        }
      ],
      "stateMutability": "view",
      "type": "function",
      "constant": true
    },
    {
      "inputs": [],
      "name": "getAllCampaigns",
      "outputs": [
        {
          "components": [
            {
              "internalType": "string",
              "name": "title",
              "type": "string"
            },
            {
              "internalType": "string",
              "name": "description",
              "type": "string"
            },
            {
              "internalType": "uint256",
              "name": "goalAmount",
              "type": "uint256"
            },
            {
              "internalType": "uint256",
              "name": "raisedAmount",
              "type": "uint256"
            },
            {
              "internalType": "uint256",
              "name": "startTime",
              "type": "uint256"
            },
            {
              "internalType": "uint256",
              "name": "endTime",
              "type": "uint256"
            },
            {
              "internalType": "address payable",
              "name": "creator",
              "type": "address"
            },
            {
              "internalType": "bool",
              "name": "isPrivate",
              "type": "bool"
            },
            {
              "internalType": "bool",
              "name": "isEnded",
              "type": "bool"
            }
          ],
          "internalType": "struct TransparentCrowdFunding.Campaign[]",
          "name": "",
          "type": "tuple[]"
        }
      ],
      "stateMutability": "view",
      "type": "function",
      "constant": true
    },
    {
      "inputs": [
        {
          "internalType": "uint256",
          "name": "campaignId",
          "type": "uint256"
        }
      ],
      "name": "getCampaign",
      "outputs": [
        {
          "internalType": "string",
          "name": "title",
          "type": "string"
        },
        {
          "internalType": "string",
          "name": "description",
          "type": "string"
        },
        {
          "internalType": "uint256",
          "name": "goalAmount",
          "type": "uint256"
        },
        {
          "internalType": "uint256",
          "name": "raisedAmount",
          "type": "uint256"
        },
        {
          "internalType": "uint256",
          "name": "startTime",
          "type": "uint256"
        },
        {
          "internalType": "uint256",
          "name": "endTime",
          "type": "uint256"
        },
        {
          "internalType": "address",
          "name": "creator",
          "type": "address"
        },
        {
          "internalType": "bool",
          "name": "isPrivate",
          "type": "bool"
        }
      ],
      "stateMutability": "view",
      "type": "function",
      "constant": true
    },
    {
      "inputs": [
        {
          "internalType": "uint256",
          "name": "campaignId",
          "type": "uint256"
        },
        {
          "internalType": "uint256",
          "name": "amount",
          "type": "uint256"
        }
      ],
      "name": "spendFunds",
      "outputs": [],
      "stateMutability": "nonpayable",
      "type": "function"
    }
  ],
  "bytecode": "0x608060405234801561001057600080fd5b506116eb806100206000396000f3fe6080604052600436106100ae576000357c0100000000000000000000000000000000000000000000000000000000900480637d65bdf1116100765780637d65bdf11461019857806386cdf604146101b8578063950bb0de146101da578063f14faf6f14610209578063f999f0271461021c57600080fd5b8063141961bc146100b357806349836982146100f15780634d42022f1461011e5780635598f8cc146101405780637274e30d14610174575b600080fd5b3480156100bf57600080fd5b506100d36100ce366004611046565b61023c565b6040516100e8999897969594939291906110a5565b60405180910390f35b3480156100fd57600080fd5b5061011161010c366004611046565b6103c9565b6040516100e89190611113565b34801561012a57600080fd5b5061013e610139366004611237565b6104e1565b005b34801561014c57600080fd5b5061016061015b366004611046565b61068f565b6040516100e89897969594939291906112c8565b34801561018057600080fd5b5061018a60025481565b6040519081526020016100e8565b3480156101a457600080fd5b5061013e6101b336600461132e565b61082b565b3480156101c457600080fd5b506101cd610a05565b6040516100e89190611350565b3480156101e657600080fd5b506101fa6101f536600461132e565b610cb8565b6040516100e89392919061141b565b61013e610217366004611046565b610d87565b34801561022857600080fd5b5061013e610237366004611444565b610eaa565b60006020819052908152604090208054819061025790611494565b80601f016020809104026020016040519081016040528092919081815260200182805461028390611494565b80156102d05780601f106102a5576101008083540402835291602001916102d0565b820191906000526020600020905b8154815290600101906020018083116102b357829003601f168201915b5050505050908060010180546102e590611494565b80601f016020809104026020016040519081016040528092919081815260200182805461031190611494565b801561035e5780601f106103335761010080835404028352916020019161035e565b820191906000526020600020905b81548152906001019060200180831161034157829003601f168201915b5050506002840154600385015460048601546005870154600690970154959692959194509250600160a060020a0381169060ff740100000000000000000000000000000000000000008204811691750100000000000000000000000000000000000000000090041689565b606060016000838152602001908152602001600020805480602002602001604051908101604052809291908181526020016000905b828210156104d657838290600052602060002090600302016040518060600160405290816000820154815260200160018201805461043b90611494565b80601f016020809104026020016040519081016040528092919081815260200182805461046790611494565b80156104b45780601f10610489576101008083540402835291602001916104b4565b820191906000526020600020905b81548152906001019060200180831161049757829003601f168201915b50505050508152602001600282015481525050815260200190600101906103fe565b505050509050919050565b4260006104ee84836114e4565b604080516101208101825289815260208082018a90528183018990526000606083018190526080830187905260a083018590523360c084015287151560e0840152610100830181905260025481529081905291909120815192935090918190610557908261154c565b506020820151600182019061056c908261154c565b50604082810151600280840191909155606084015160038401556080840151600484015560a0840151600584015560c08401516006909301805460e086015161010090960151151575010000000000000000000000000000000000000000000275ff00000000000000000000000000000000000000000019961515740100000000000000000000000000000000000000000274ffffffffffffffffffffffffffffffffffffffffff19909216600160a060020a03909616959095171794909416929092179092555490517f3a495479e40f7ba7d7f6395edf32b142dc0c2dc52ee9bc5aae0dd2541321074c91610669918a90899087908790611612565b60405180910390a16002805490600061068183611648565b919050555050505050505050565b60608060008060008060008060008060008b81526020019081526020016000209050806000018160010182600201548360030154846004015485600501548660060160009054906101000a9004600160a060020a03168760060160149054906101000a900460ff1687805461070390611494565b80601f016020809104026020016040519081016040528092919081815260200182805461072f90611494565b801561077c5780601f106107515761010080835404028352916020019161077c565b820191906000526020600020905b81548152906001019060200180831161075f57829003601f168201915b5050505050975086805461078f90611494565b80601f01602080910402602001604051908101604052809291908181526020018280546107bb90611494565b80156108085780601f106107dd57610100808354040283529160200191610808565b820191906000526020600020905b8154815290600101906020018083116107eb57829003601f168201915b505050505096509850985098509850985098509850985050919395975091939597565b60008281526020819052604090206005015482904210156108965760405160e560020a62461bcd02815260206004820152601a60248201527f43616d706169676e20686173206e6f7420656e6465642079657400000000000060448201526064015b60405180910390fd5b60008381526020819052604090206006810154600160a060020a031633146109285760405160e560020a62461bcd028152602060048201526024808201527f4f6e6c79207468652063726561746f722063616e207370656e6420746865206660448201527f756e647300000000000000000000000000000000000000000000000000000000606482015260840161088d565b806003015483111561097f5760405160e560020a62461bcd02815260206004820152601260248201527f496e73756666696369656e742066756e64730000000000000000000000000000604482015260640161088d565b828160030160008282546109939190611661565b9091555050604051339084156108fc029085906000818181858888f193505050501580156109c5573d6000803e3d6000fd5b5060408051858152602081018590527f0c1e28c812879c86d01533b06193eebaefc0752657573184a35533b9361124e2910160405180910390a150505050565b6060600060025467ffffffffffffffff811115610a2457610a24611191565b604051908082528060200260200182016040528015610ab157816020015b610a9e6040518061012001604052806060815260200160608152602001600081526020016000815260200160008152602001600081526020016000600160a060020a031681526020016000151581526020016000151581525090565b815260200190600190039081610a425790505b50905060005b600254811015610cb2576000818152602081905260409081902081516101208101909252805482908290610aea90611494565b80601f0160208091040260200160405190810160405280929190818152602001828054610b1690611494565b8015610b635780601f10610b3857610100808354040283529160200191610b63565b820191906000526020600020905b815481529060010190602001808311610b4657829003601f168201915b50505050508152602001600182018054610b7c90611494565b80601f0160208091040260200160405190810160405280929190818152602001828054610ba890611494565b8015610bf55780601f10610bca57610100808354040283529160200191610bf5565b820191906000526020600020905b815481529060010190602001808311610bd857829003601f168201915b505050918352505060028201546020820152600382015460408201526004820154606082015260058201546080820152600690910154600160a060020a03811660a083015260ff7401000000000000000000000000000000000000000082048116151560c0840152750100000000000000000000000000000000000000000090910416151560e0909101528251839083908110610c9457610c94611674565b60200260200101819052508080610caa90611648565b915050610ab7565b50919050565b60016020528160005260406000208181548110610cd457600080fd5b906000526020600020906003020160009150915050806000015490806001018054610cfe90611494565b80601f0160208091040260200160405190810160405280929190818152602001828054610d2a90611494565b8015610d775780601f10610d4c57610100808354040283529160200191610d77565b820191906000526020600020905b815481529060010190602001808311610d5a57829003601f168201915b5050505050908060020154905083565b60008181526020819052604090206005015481904210610dec5760405160e560020a62461bcd02815260206004820152601260248201527f43616d706169676e2068617320656e6465640000000000000000000000000000604482015260640161088d565b60003411610e3f5760405160e560020a62461bcd02815260206004820152601f60248201527f446f6e6174696f6e206d7573742062652067726561746572207468616e203000604482015260640161088d565b600082815260208190526040812060038101805491923492610e629084906114e4565b909155505060408051848152336020820152348183015290517f0b5b4c52969ff7329ecf7ee536409fda87812b15a8622bc6e8cdeab3aee14a269181900360600190a1505050565b6000838152602081905260409020600501548390421015610f105760405160e560020a62461bcd02815260206004820152601a60248201527f43616d706169676e20686173206e6f7420656e64656420796574000000000000604482015260640161088d565b60008481526020819052604090206006810154600160a060020a03163314610fa35760405160e560020a62461bcd02815260206004820152602160248201527f4f6e6c79207468652063726561746f722063616e2061646420657870656e736560448201527f7300000000000000000000000000000000000000000000000000000000000000606482015260840161088d565b6000858152600160208181526040808420815160608101835289815280840189815242938201939093528154808601835591865292909420825160039095020193845551909291820190610ff7908261154c565b506040820151816002015550507f0f721de23764477bad0ccf0c9313361d4920f832e991c3f3f5bf86a54be334da8585856040516110379392919061168d565b60405180910390a15050505050565b60006020828403121561105857600080fd5b5035919050565b6000815180845260005b8181101561108557602081850181015186830182015201611069565b506000602082860101526020601f19601f83011685010191505092915050565b60006101208083526110b98184018d61105f565b905082810360208401526110cd818c61105f565b604084019a909a5250506060810196909652608086019490945260a0850192909252600160a060020a031660c0840152151560e083015215156101009091015292915050565b60208082528251828201819052600091906040908185019080840286018301878501865b8381101561118357603f19898403018552815160608151855288820151818a8701526111658287018261105f565b92890151958901959095525094870194925090860190600101611137565b509098975050505050505050565b60e060020a634e487b7102600052604160045260246000fd5b600082601f8301126111bb57600080fd5b813567ffffffffffffffff808211156111d6576111d6611191565b604051601f8301601f19908116603f011681019082821181831017156111fe576111fe611191565b8160405283815286602085880101111561121757600080fd5b836020870160208301376000602085830101528094505050505092915050565b600080600080600060a0868803121561124f57600080fd5b853567ffffffffffffffff8082111561126757600080fd5b61127389838a016111aa565b9650602088013591508082111561128957600080fd5b50611296888289016111aa565b9450506040860135925060608601359150608086013580151581146112ba57600080fd5b809150509295509295909350565b60006101008083526112dc8184018c61105f565b905082810360208401526112f0818b61105f565b604084019990995250506060810195909552608085019390935260a0840191909152600160a060020a031660c0830152151560e09091015292915050565b6000806040838503121561134157600080fd5b50508035926020909101359150565b60208082528251828201819052600091906040908185019080840286018301878501865b8381101561118357603f198984030185528151610120815181865261139b8287018261105f565b915050888201518582038a8701526113b3828261105f565b838a0151878b0152606080850151908801526080808501519088015260a0808501519088015260c080850151600160a060020a03169088015260e080850151151590880152610100938401511515939096019290925250509386019390860190600101611374565b838152606060208201526000611434606083018561105f565b9050826040830152949350505050565b60008060006060848603121561145957600080fd5b8335925060208401359150604084013567ffffffffffffffff81111561147e57600080fd5b61148a868287016111aa565b9150509250925092565b6002810460018216806114a857607f821691505b602082108103610cb25760e060020a634e487b7102600052602260045260246000fd5b60e060020a634e487b7102600052601160045260246000fd5b808201808211156114f7576114f76114cb565b92915050565b601f821115611547576000818152602081206020601f860104810160208610156115245750805b6020601f860104820191505b8181101561154357828155600101611530565b5050505b505050565b815167ffffffffffffffff81111561156657611566611191565b61157a816115748454611494565b846114fd565b602080601f8311600181146115b357600084156115975750858301515b60028086026008870290910a6000190419821617865550611543565b600085815260208120601f198616915b828110156115e2578886015182559484019460019091019084016115c3565b508582101561160257878501516008601f88160260020a60001904191681555b5050505050600202600101905550565b85815260a06020820152600061162b60a083018761105f565b604083019590955250606081019290925260809091015292915050565b60006001820161165a5761165a6114cb565b5060010190565b818103818111156114f7576114f76114cb565b60e060020a634e487b7102600052603260045260246000fd5b8381528260208201526060604082015260006116ac606083018461105f565b9594505050505056fea2646970667358221220e5e7dc379fcb2b5f46bc67802c90bc199663f8976b00ca08f0d7fb70b180f87364736f6c63430008150033",
  "immutableReferences": {},
  "source": "// SPDX-License-Identifier: MIT\r\npragma solidity ^0.8.9;\r\n\r\ncontract TransparentCrowdFunding {\r\n\r\n    struct Campaign {\r\n        string title;\r\n        string description;\r\n        uint256 goalAmount;\r\n        uint256 raisedAmount;\r\n        uint256 startTime;\r\n        uint256 endTime;\r\n        address payable creator;\r\n        bool isPrivate;\r\n        bool isEnded;\r\n    }\r\n\r\n    struct Expense {\r\n        uint256 amount;\r\n        string description;\r\n        uint256 date;\r\n    }\r\n\r\n    mapping(uint256 => Campaign) public campaigns;\r\n    mapping(uint256 => Expense[]) public campaignExpenses;\r\n    uint256 public campaignCount;\r\n\r\n    event CampaignCreated(uint256 campaignId, string title, uint256 goalAmount, uint256 startTime, uint256 endTime);\r\n    event DonationReceived(uint256 campaignId, address donor, uint256 amount);\r\n    event ExpenseAdded(uint256 campaignId, uint256 amount, string description);\r\n    event FundsSpent(uint256 campaignId, uint256 amount);\r\n\r\n    // Modifier to ensure the campaign is active\r\n    modifier isActiveCampaign(uint256 campaignId) {\r\n        require(campaigns[campaignId].endTime > block.timestamp, \"Campaign has ended\");\r\n        _;\r\n    }\r\n\r\n    // Modifier to ensure the campaign has ended\r\n    modifier isEndedCampaign(uint256 campaignId) {\r\n        require(campaigns[campaignId].endTime <= block.timestamp, \"Campaign has not ended yet\");\r\n        _;\r\n    }\r\n\r\n    // Create a new campaign\r\n    function createCampaign(\r\n        string memory _title,\r\n        string memory _description,\r\n        uint256 _goalAmount,\r\n        uint256 _duration,  // Duration in seconds\r\n        bool _isPrivate\r\n    ) public {\r\n        uint256 startTime = block.timestamp;\r\n        uint256 endTime = startTime + _duration;\r\n\r\n        campaigns[campaignCount] = Campaign({\r\n            title: _title,\r\n            description: _description,\r\n            goalAmount: _goalAmount,\r\n            raisedAmount: 0,\r\n            startTime: startTime,\r\n            endTime: endTime,\r\n            creator: payable(msg.sender),\r\n            isPrivate: _isPrivate,\r\n            isEnded: false\r\n        });\r\n\r\n        emit CampaignCreated(campaignCount, _title, _goalAmount, startTime, endTime);\r\n\r\n        campaignCount++;\r\n    }\r\n\r\n    // Donate to a campaign\r\n    function donate(uint256 campaignId) public payable isActiveCampaign(campaignId) {\r\n        require(msg.value > 0, \"Donation must be greater than 0\");\r\n\r\n        Campaign storage campaign = campaigns[campaignId];\r\n        campaign.raisedAmount += msg.value;\r\n\r\n        emit DonationReceived(campaignId, msg.sender, msg.value);\r\n    }\r\n\r\n    // Add an expense to a campaign\r\n    function addExpense(uint256 campaignId, uint256 _amount, string memory _description) public isEndedCampaign(campaignId) {\r\n        Campaign storage campaign = campaigns[campaignId];\r\n        require(msg.sender == campaign.creator, \"Only the creator can add expenses\");\r\n\r\n        campaignExpenses[campaignId].push(Expense({\r\n            amount: _amount,\r\n            description: _description,\r\n            date: block.timestamp\r\n        }));\r\n\r\n        emit ExpenseAdded(campaignId, _amount, _description);\r\n    }\r\n\r\n    // Fetch expenses for a specific campaign\r\n    function getExpenses(uint256 campaignId) public view returns (Expense[] memory) {\r\n        return campaignExpenses[campaignId];\r\n    }\r\n\r\n    // Fetch all campaigns\r\n    function getAllCampaigns() public view returns (Campaign[] memory) {\r\n        Campaign[] memory allCampaigns = new Campaign[](campaignCount);\r\n        for (uint256 i = 0; i < campaignCount; i++) {\r\n            allCampaigns[i] = campaigns[i];\r\n        }\r\n        return allCampaigns;\r\n    }\r\n\r\n    // Fetch campaign details\r\n    function getCampaign(uint256 campaignId) public view returns (\r\n        string memory title,\r\n        string memory description,\r\n        uint256 goalAmount,\r\n        uint256 raisedAmount,\r\n        uint256 startTime,\r\n        uint256 endTime,\r\n        address creator,\r\n        bool isPrivate\r\n    ) {\r\n        Campaign storage campaign = campaigns[campaignId];\r\n        return (\r\n            campaign.title,\r\n            campaign.description,\r\n            campaign.goalAmount,\r\n            campaign.raisedAmount,\r\n            campaign.startTime,\r\n            campaign.endTime,\r\n            campaign.creator,\r\n            campaign.isPrivate\r\n        );\r\n    }\r\n\r\n    // Function for campaign owners to withdraw funds\r\n    function spendFunds(uint256 campaignId, uint256 amount) public isEndedCampaign(campaignId) {\r\n        Campaign storage campaign = campaigns[campaignId];\r\n        require(msg.sender == campaign.creator, \"Only the creator can spend the funds\");\r\n        require(amount <= campaign.raisedAmount, \"Insufficient funds\");\r\n\r\n        campaign.raisedAmount -= amount;\r\n        payable(msg.sender).transfer(amount);\r\n\r\n        emit FundsSpent(campaignId, amount);\r\n    }\r\n}\r\n",
  "sourcePath": "C:\\Users\\nisht\\OneDrive\\Desktop\\Fundraising\\contracts\\TransparentCrowdFunding.sol",
  "compiler": {
    "name": "solc",
    "version": "0.8.21+commit.d9974bed.Emscripten.clang"
  },
  "schemaVersion": "3.4.16",
  "updatedAt": "2024-11-15T09:05:30.960Z",
  "networkType": "ethereum",
  "devdoc": {
    "kind": "dev",
    "methods": {},
    "version": 1
  },
  "userdoc": {
    "kind": "user",
    "methods": {},
    "version": 1
  }
}